:100000000C945A000C9481000C9481000C94810093
:100010000C9481000C9481000C9481000C9481005C
:100020000C9481000C9427110C9481000C943811CD
:100030000C9481000C9481000C9481000C9481003C
:100040000C941B110C9481000C946B010C941A01FC
:100050000C9481000C9481000C9481000C9481001C
:100060000C9481000C9481001A07D9042D05FE041C
:100070003A053D05400598059805D205D505D805F2
:10008000DA05DC05DE059D0613078B061307B306AC
:10009000BE06C906D406E906FE0613071307A8061E
:1000A0001307130796061307130713071307FB0518
:1000B0002B065B06E9EAF6E085EC98E001C0819347
:1000C000EF3FF907E0F3D9F311241FBECFEFD8E0DB
:1000D000DEBFCDBF11E0A0E0B1E0E4EBF0E302C091
:1000E00005900D92A230B107D9F716E0A2E0B1E079
:1000F00001C01D92A93AB107E1F70E9483000C9458
:1001000058180C94000078940E94B2000E94980243
:100110000E94860E0E94BD100E949E0E0E94C90E73
:100120000E94BA0480E090E00895109203011092BA
:1001300002010895909109019F5F903809F490E0C1
:10014000209108019217E1F3E0910901F0E0E75DE9
:10015000F94F8083909309018091C1008062809360
:10016000C10008951092C50080E18093C400E0ECC6
:10017000F0E080818D7F8083E1ECF0E08081806120
:1001800080838081886080838081806880838EE71F
:100190000C949A00CF92DF92EF92FF92CF93C82FE8
:1001A000CB01BA0120E030E04AE754E40E943A175C
:1001B0000E940A176B017C0188EFF81A8C2D806869
:1001C0000E949A00D701C60180789F73AA27BB2797
:1001D00027E0B695A795979587952A95D1F78058EA
:1001E0000E949A00D701C6018827907CAF71BB2777
:1001F0003EE0B695A795979587953A95D1F78058A3
:100200000E949A00D701C60188279927A07EBF7057
:1002100045E1B695A795979587954A95D1F780586A
:100220000E949A008C2FCF91FF90EF90DF90CF909B
:100230000C949A001F920F920FB60F9211248F9375
:100240009F93EF93FF93809108019091050199236B
:1002500031F095E09093C600109205010DC0E82F93
:10026000F0E0E75DF94F90819093C6008F5F803892
:1002700009F480E08093080190910901891305C079
:100280008091C1008F7D8093C100FF91EF919F917C
:100290008F910F900FBE0F901F901895E0910A015B
:1002A000F0E0E75DFA4F808190910A019F5F9093A3
:1002B0000A01909104019F5F90930401903151F4E1
:1002C00091E0909305019091C10090629093C100DC
:1002D0001092040108951F920F920FB60F921124ED
:1002E0002F933F934F935F936F937F938F939F933E
:1002F000AF93BF93CF93EF93FF93C091C6008091CC
:100300000001882329F010920001C09307013DC02D
:1003100081E08093000180910701C81719F08DE3F7
:100320000E942510C031F8F4C13011F481E224C0DC
:10033000C23069F4109203011092020110920A0176
:1003400010920B01109204010E9437101EC0C3309E
:1003500019F40E94010319C0C43019F40E94050366
:1003600014C083E209C0E0910B0181E08E0F9091EF
:100370000A01891304C082E20E94251006C0F0E041
:10038000E75DFA4FC08380930B01FF91EF91CF910E
:10039000BF91AF919F918F917F916F915F914F919D
:1003A0003F912F910F900FBE0F901F901895CF93F4
:1003B000C1E080910301882301F18091020188232B
:1003C000C9F01092060190910A0180910B019813D7
:1003D0000BC080910601811104C00E940903C093E3
:1003E00006010E941503EFCF0E944E01813111F4E6
:1003F000109203010E941503DCCF10920601C1E0A8
:1004000090910A0180910B0198130BC08091060115
:10041000811104C00E940903C09306010E941503C4
:10042000EFCF0E944E01803131F481E080930301CF
:100430001092020181E4CF910895809103018823F5
:10044000C9F080910201811115C090910A0180913B
:100450000B01981303C00E9409030CC00E944E01B7
:1004600087FD09C0813119F41092030103C083E2B2
:100470000E94251080E8089520910A0190910B01B7
:1004800081E0291301C080E0089581E0809302019A
:1004900008950F931F936091140170E080E090E045
:1004A000605871098109910927E0660F771F881F3D
:1004B000991F2A95D1F70091130110E020E030E058
:1004C0000058110921093109600F711F821F931F04
:1004D00037E0660F771F881F991F3A95D1F7009173
:1004E000120110E020E030E0005811092109310923
:1004F000600F711F821F931F47E0660F771F881FD1
:10050000991F4A95D1F720911101620F711D811D2C
:10051000911D60587109810998400E94031620E0DE
:1005200030E04AE754E40E9468151F910F91089546
:1005300021E02093160180E090E0AAEFB5E48093DB
:10054000170190931801A0931901B0931A0110920A
:100550001B018CE0E5E2F1E0DF011D928A95E9F7ED
:1005600010921C0110921D0110921E0110921F0189
:100570001092200110922101109222011092230169
:100580001092240180E090E0A0EAB0E48093310171
:1005900090933201A0933301B093340180933501DD
:1005A00090933601A0933701B0933801109239012E
:1005B00010923A0110923B0110923C0180933D0150
:1005C00090933E01A0933F01B0934001809341017D
:1005D00090934201A0934301B093440110924501CE
:1005E0001092460110924701109248012093100189
:1005F00020930F0110920E0110920D0120930C0117
:10060000089581E080931001089581E080930F01A7
:10061000089580910D0190910E01019690930E0125
:1006200080930D0110920C010895CF92DF92EF920A
:10063000FF920F931F93CF93DF9300D000D0CDB7DD
:10064000DEB789B199B1991F9927991F82FB882735
:1006500080F9892B11F44B9B03C080E00E94A50E0A
:100660000E9434108823D1F00E94250E0E945F1052
:100670006B017C010E944E109B01AC0169833A839F
:100680004B835C830E943D108701760129813A816A
:100690004B815C810E942A0E1092150180911001FD
:1006A000811105C080910F01882309F456C1109271
:1006B00010010E94FB0D811112C00E943C028111A9
:1006C0000EC00E94341081110AC081E40E949A0079
:1006D00083B7816083BF889583B78E7F83BF89B1DD
:1006E00099B1991F9927991F82FB882780F9892B37
:1006F00019F082E40E949A004B9B03C083E40E949D
:100700009A000E943110182F803211F00E949A0036
:10071000309B05C0143219F084E20E949A00319B8C
:1007200005C0153219F085E20E949A00329B05C07F
:10073000163219F086E20E949A00339B05C01A32E5
:1007400019F08AE20E949A000E943D10E091240173
:1007500023E0E29FF0011124EE0FFF1FEE0FFF1FB9
:10076000EA5EFE4F238D348D458D568D0E94EC142C
:10077000AB01BC0188E70E94CA000E944E10E091C4
:10078000240123E0E29FF0011124EE0FFF1FEE0F82
:10079000FF1FE65EFE4F238D348D458D568D0E94E2
:1007A000EC14AB01BC0189E70E94CA000E945F10F3
:1007B000E091240123E0E29FF0011124EE0FFF1FDE
:1007C000EE0FFF1FE25EFE4F238D348D458D568D5B
:1007D0000E94EC14AB01BC018AE70E94CA00809120
:1007E0000C01811110C060910D0170910E0180E02B
:1007F00090E00E940116AB01BC0187E70E94CA008D
:1008000081E080930C01E9EAF6E0BF01695A764085
:100810008081853C09F48AC080E090E00E94011646
:10082000AB01BC0185E70E94CA0080910F018823BB
:1008300009F484C010920F0140E050E265ED74E4C9
:1008400086E70E94CA002091310130913201409127
:1008500033015091340160913D0170913E018091CE
:100860003F01909140010E94EC14AB01BC0181E674
:100870000E94CA0020913501309136014091370124
:100880005091380160914101709142018091430182
:10089000909144010E94EC14AB01BC0182E60E94DD
:1008A000CA002091390130913A0140913B015091A9
:1008B0003C01609145017091460180914701909102
:1008C00048010E94EC14AB01BC0183E60E94CA00FF
:1008D00040911701509118016091190170911A010E
:1008E00087E60E94CA0060911B0170E080E090E002
:1008F0000E940116AB01BC0188E60E94CA0040912B
:100900001C0150911D0160911E0170911F0189E62B
:100910000E94CA0040912001509121016091220162
:10092000709123018AE60E94CA0008C088E0EF3F68
:10093000F80711F008F070CF319667CF86E00F907E
:100940000F900F900F90DF91CF911F910F91FF901B
:10095000EF90DF90CF900C949A000F900F900F9033
:100960000F90DF91CF911F910F91FF90EF90DF904B
:10097000CF900895C1E00E94D701182F0E94341033
:10098000882319F00E941503F6CF17FD56C28FEB8E
:10099000810F8A3108F018C1412F50E0FA01E1546B
:1009A000F109EF30F10508F00DC1EC5CFF4F0C943C
:1009B0002F18A0901701B0901801C0901901D09085
:1009C0001A01E0902D01F0902E0100912F0110915D
:1009D00030012091290130912A0140912B01509141
:1009E0002C01609125017091260180912701909141
:1009F00028011F921F921F921F922CC0A0901701D6
:100A0000B0901801C0901901D0901A01E0902D010A
:100A1000F0902E0100912F011091300120912901B9
:100A200030912A0140912B0150912C0160912501B8
:100A3000709126018091270190912801E091230176
:100A4000EF93E0912201EF93E0912101EF93E09188
:100A50002001EF9380901B0164C060911C01709194
:100A60001D0180911E0190911F0140911B010E9468
:100A7000CA0DE0C110921601DDC1C0931601DAC1A2
:100A80000E942210882319F00E941503F9CF0E94BA
:100A9000E614E12CF12C8701A8019701C801B701E8
:100AA0000E942A0E1092240160913101709132014E
:100AB0008091330190913401609325017093260158
:100AC00080932701909328012091350130913601C0
:100AD00040913701509138012093290130932A0128
:100AE00040932B0150932C01E0903901F0903A0192
:100AF00000913B0110913C01E0922D01F0922E01FA
:100B000000932F0110933001A0901701B0901801AD
:100B1000C0901901D0901A011F921F921F921F922C
:100B2000812C0E94D3080F900F900F900F9082C1DC
:100B30000E942210882319F00E941503F9CF21E0AA
:100B400030E0193411F020E030E08901000F111F6E
:100B5000020F131F0E943D10F801EE0FFF1FEE0F52
:100B6000FF1FEA5EFE4F638F748F858F968F0E9402
:100B70004E10F801EE0FFF1FEE0FFF1FE65EFE4F57
:100B8000638F748F858F968F0E945F10F801EE0F30
:100B9000FF1FEE0FFF1FE25EFE4F638F748F858F86
:100BA000968F48C11092240145C1C093240142C1CF
:100BB00082E005C083E003C084E001C085E00E94BC
:100BC000CB0D38C18CE334C18FE9810F8A3108F035
:100BD0002EC180911501843009F027C1812F90E04A
:100BE000FC01E456F109E731F10508F01CC1ED5BA9
:100BF000FF4F0C942F1880911601813099F40E94B8
:100C00004902E091240123E0E29FF0011124EE0F5C
:100C1000FF1FEE0FFF1FEA5EFE4F238D348D458DC3
:100C2000568D0EC0C0902501D0902601E09027017E
:100C3000F09028010E9449029B01AC01C701B60156
:100C40000E94ED1460932501709326018093270183
:100C500090932801EFC080911601813099F40E9491
:100C60004902E091240123E0E29FF0011124EE0FFC
:100C7000FF1FEE0FFF1FE65EFE4F238D348D458D67
:100C8000568D0EC0C0902901D0902A01E0902B0112
:100C9000F0902C010E9449029B01AC01C701B601F2
:100CA0000E94ED146093290170932A0180932B0117
:100CB00090932C01BFC080911601813099F40E945D
:100CC0004902E091240123E0E29FF0011124EE0F9C
:100CD000FF1FEE0FFF1FE25EFE4F238D348D458D0B
:100CE000568D0EC0C0902D01D0902E01E0902F01A6
:100CF000F09030010E9449029B01AC01C701B6018E
:100D00000E94ED1460932D0170932E0180932F01AA
:100D1000909330018FC00E94490260931701709335
:100D200018018093190190931A0184C00E9449020E
:100D30000E94D51560931B017DC00E9449026093FB
:100D40001C0170931D0180931E0190931F0172C0BE
:100D50000E94490260932001709321018093220137
:100D60009093230167C00E94490260933101709300
:100D7000320180933301909334015CC00E94490298
:100D80006093350170933601809337019093380159
:100D900051C00E9449026093390170933A018093D7
:100DA0003B0190933C0146C00E94490220913101D1
:100DB0003091320140913301509134010E94ED1481
:100DC00060933D0170933E0180933F0190934001F9
:100DD00031C00E9449022091350130913601409185
:100DE0003701509138010E94ED14609341017093D6
:100DF000420180934301909344011CC00E94490228
:100E00002091390130913A0140913B0150913C01D0
:100E10000E94ED1460934501709346018093470151
:100E20009093480107C08EE303C08AE301C083E2C8
:100E30000E94251010921501A5CDE0911501E43016
:100E400048F481E08E0F80931501F0E0EF5EFE4FD5
:100E5000108398CD8AE30E94251094CD2F923F9263
:100E60004F925F926F927F928F929F92AF92BF92BA
:100E7000CF92DF92EF92FF920F931F93CF93DF9366
:100E8000CDB7DEB760970FB6F894DEBF0FBECDBF0B
:100E90001C012A013B0148015901FC016289738947
:100EA000848995890E9401166B017C01A30192013E
:100EB0000E943A170E9451150E94D5152B013C0142
:100EC000F10161A772A783A794A7A5019401C701A7
:100ED000B6010E943A170E9451150E94D5154B0188
:100EE0005C01F10165A776A787A790AB21A932A97C
:100EF00043A954A9A0EEBEE20E94E61769837A8353
:100F00008B839C830E9403166D837E838F839887D7
:100F1000C301B2010E9401162B013C01A7019601F9
:100F2000C701B6010E943A176B017C01A30192012F
:100F3000C301B2010E943A1769877A878B879C8721
:100F40002D813E814F815885CA01B9010E94ED145F
:100F50006D877E878F87988B29853A854B855C8541
:100F6000C701B6010E94EC142D853E854F85588936
:100F70000E9468150E9451150E94D0152B013C015A
:100F8000C501B4010E9401169B01AC010E943A17F1
:100F90004B015C01A70196010E94EC146B017C01DE
:100FA00069817A818B819C819095809570956195FE
:100FB0007F4F8F4F9F4F0E9403169B01AC010E94F1
:100FC000ED149B01AC01C701B6010E9468150E9497
:100FD0003E16F101C684D784E088F188A701960106
:100FE000241935094609570929833A834B835C83C1
:100FF0000E94D01529813A814B815C81261B370BD9
:10100000480B590BDA01C90157FF3DC0C701B601B2
:101010000E9403169B01AC016D857E858F859889A2
:101020000E943A1729853A854B855C850E94EC140D
:10103000A50194010E94ED144B015C0120E030E019
:1010400040E850E46D817E818F8198850E943A1737
:101050009B01AC01C501B4010E9468150E945115A5
:101060000E94D01597FF03C060E070E0CB012B0118
:101070003C01C616D706E806F90614F42601370126
:1010800080E090E0DC01F10145AA56AA67AA70AEA3
:10109000840D951DA61DB71D81AF92AFA3AFB4AF50
:1010A00060960FB6F894DEBF0FBECDBFDF91CF9133
:1010B0001F910F91FF90EF90DF90CF90BF90AF9076
:1010C0009F908F907F906F905F904F903F902F9068
:1010D00008954F925F926F927F92AF92BF92CF929C
:1010E000DF92EF92FF920F931F93CF93DF938C01C8
:1010F000EB01FC0180A5811147C0428C538C648CAC
:10110000758CAA8CBB8CCC8CDD8C9501A601C3019F
:10111000B2010E94641587FF37C0A3019201C30189
:10112000B2010E943A172B013C0120E03AEB4BE55B
:101130005AECF80162A173A184A195A10E943A170B
:101140009B01AC01C301B2010E94EC140E94A117E3
:101150007B018C019B01AC01B501C6010E946415A5
:1011600087FF02C0750186019701A801B501C6017C
:101170000E946415882341F0A701B8014A8F5B8F54
:101180006C8F7D8F81E08FA3DF91CF911F910F91A5
:10119000FF90EF90DF90CF90BF90AF907F906F90D7
:1011A0005F904F9008952F923F924F925F926F926F
:1011B0007F928F929F92AF92BF92CF92DF92EF92E7
:1011C000FF920F931F93CF93DF93CDB7DEB7A19715
:1011D0000FB6F894DEBF0FBECDBF29013A01E982F8
:1011E000FA820B831C83AA86BB86CC86DD86CEA8BA
:1011F000DFA8E8ACF9AC2CE137EC41EB52E40E94FB
:101200003A170E940A176E8B7F8B888F998F24E77D
:1012100031ED45EB52E4C301B2010E943A170E943E
:101220000A176A8F7B8F8C8F9D8F25E535E545E00A
:1012300052E469817A818B819C810E943A170E94D5
:101240000A176E8F7F8F88A399A340906601242D83
:101250002F5F29872E3009F419864984042D112720
:1012600007FD10958091650190E08017910719F4B2
:101270000E941503F7CF8091660121E4829F30011F
:101280001124A30149595E4F5A83498320E030E07D
:10129000A901C701B6010E9464158823E1F081E02D
:1012A000A981BA818C932CE137EC41EB52E4C70160
:1012B000B6010E943A1720E030E040E854E40E9472
:1012C0003A170E940A17E981FA81FD9660837183BB
:1012D0008283938303C0E981FA811082A981BA8154
:1012E00096968C9296971D961C928091590190919A
:1012F0005A01A0915B01B0915C014E885F88688CB7
:10130000798C481659066A067B0624F428E0E981A0
:10131000FA81258700915D0110915E0120915F01A6
:10132000309160014A8C5B8C6C8C7D8C4016510630
:10133000620673062CF4E981FA8145854061458790
:10134000C0906101D0906201E0906301F09064016F
:101350004E8C5F8C68A079A04C145D046E047F04F1
:101360002CF4E981FA814585406245874E885F8883
:10137000688C798C481A590A6A0A7B0AC301B2013F
:101380004D825E826F82788677FE0BC0662477245A
:101390004301661A770A880A990A6D827E828F82D3
:1013A00098868D809E80AF80B884A981BA8111967D
:1013B0008D929D92AD92BC9214978A8C9B8CAC8C32
:1013C000BD8C801A910AA20AB30A24013501B7FE26
:1013D00007C0442455243201481859086A087B087C
:1013E000E981FA8145825682678270862E8D3F8D13
:1013F00048A159A12C193D094E095F0969017A01DB
:101400002A8B3B8B4C8B5D8B57FF0BC022273327DE
:10141000A9012C193D094E095F092A8B3B8B4C8B86
:101420005D8B2A893B894C895D89A981BA8119968E
:101430002D933D934D935C931C974E865F86688AEF
:10144000798A2D813E814F81588542165306640664
:10145000750620F42E873F87488B598B4E845F8416
:10146000688879882A893B894C895D8942165306A8
:101470006406750610F429013A01A981BA811E9605
:101480004D925D926D927C9251974114510461048A
:10149000710409F466C30E9403162CE137EC41EB9A
:1014A00052E40E9468156E877F87888B998BC501EF
:1014B000B4010E94031624E731ED45EB52E40E948B
:1014C00068156A8B7B8B8C8B9D8BC701B6010E9444
:1014D000031625E535E545E052E40E9468154B0109
:1014E0005C012E853F8548895989CA01B9010E944E
:1014F0003A176B017C012A893B894C895D89CA01B5
:10150000B9010E943A179B01AC01C701B6010E94C4
:10151000ED146B017C01A5019401C501B4010E9489
:101520003A179B01AC01C701B6010E94ED140E945D
:10153000A1176D837E838F839887E981FA8162A3E7
:1015400073A384A395A39B01AC0160E070E080E8E5
:101550009FE30E9468156B017C018A859B85AC85A1
:10156000BD85E981FA81868B978BA08FB18FC301EE
:10157000B2010E9403162B013C01A70196016A8566
:101580007B858C859D850E943A179B01AC01C30128
:10159000B2010E943A170E9451150E94D515A981E7
:1015A000BA8152966D937D938D939C935597A70125
:1015B0009601C301B2010E943A1720E03AEB4BEDCD
:1015C00059E40E943A1720E030E84BE356E40E94C9
:1015D00068150E9451150E94D015E981FA8161AB0E
:1015E00072AB83AB94ABA70196016E857F8588892A
:1015F00099890E943A176E877F87888B998BA701FC
:1016000096016A897B898C899D890E943A176A8B29
:101610007B8B8C8B9D8BA7019601C501B4010E9429
:101620003A172B013C019091660180916501981752
:1016300009F4A9C00091490110914A0120904B0181
:1016400030904C0120E030E0A901B801C1010E94B6
:10165000061718160CF097C080914D0190914E011D
:10166000A0914F01B0915001BC01CD0190582E8541
:101670003F85488959890E943A176B017C01209166
:1016800051013091520140915301509154016A89A6
:101690007B898C899D890E943A179B01AC01C70107
:1016A000B6010E94EC146B017C0120915501309130
:1016B00056014091570150915801C301B2010E9457
:1016C0003A179B01AC01C701B6010E94EC146B01F3
:1016D0007C0123E333E343E75FE30E94641587FF64
:1016E00052C02A853B854C855D85B801C1010E94A9
:1016F000641587FD04C00A851B852C843D8423E383
:1017000033E343E75FEBC701B6010E9406171816E3
:10171000F4F5A701960160E070E080E89FE30E9485
:10172000EC1420E030E040E05FE30E943A170E94B2
:10173000A1176B017C0120E030EC48E256E40E94E6
:101740003A174B015C01A701960160E070E080E868
:101750009FE30E94EC149B01AC01C501B4010E94FF
:1017600068150E94A1176B01F82EE92E9B01482FE6
:10177000592FB801C1010E94641587FD08C0860178
:101780002F2C3E2C04C000E010E0212C312CC8018D
:10179000D101E981FA81868F978FA0A3B1A320E0C0
:1017A0003AEB4BE55AEC6D817E818F8198850E94E2
:1017B0003A179B01AC0160E070E0CB010E94EC1491
:1017C0000E94A1176B01F82EE92E9B01482F592F7B
:1017D000B801C1010E94641587FF03C0302F212F7B
:1017E00004C03C2D2D2D2F2C3E2C832F922FD10168
:1017F000E981FA81828F938FA48FB58F96014F2D47
:101800005E2D6A857B858C859D850E9464151816E2
:1018100034F081E0A981BA8198968C9303C0E98164
:10182000FA8110A681E0A981BA8197968C938E8463
:101830009F84A888B98880924D0190924E01A09211
:101840004F01B09250018A889B88AC88BD888092F5
:10185000510190925201A0925301B09254014092D2
:1018600055015092560160925701709258018A8535
:101870009B85AC85BD858093490190934A01A093D7
:101880004B01B0934C019984909266014E885F8819
:10189000688C798C4092590150925A0160925B0198
:1018A00070925C016A8C7B8C8C8C9D8C60925D014B
:1018B00070925E0180925F01909260018E8C9F8C8D
:1018C000A8A0B9A08092610190926201A0926301E8
:1018D000B0926401D0906601E0E0F0E000E010E03A
:1018E00041E4242E332433948091650190E02D2D22
:1018F000332727FD30952817390709F46FC0D11019
:1019000002C03EE0D32EDA94222D3D2D3203700129
:101910001124A70149595E4F7A010115110509F4F7
:101920005AC0309709F457C0D80198968C9198976F
:101930005E969C905E975F96AC905F979096BC90F9
:1019400090979196CC9081113CC0428C538C648CC2
:10195000758CA3019201692D7A2D8B2D9C2D0E94EF
:101960000617181674F5A3019201C301B2010E9473
:101970003A172B013C0120E03AEB4BE55AECF80119
:1019800062A173A184A195A10E943A179B01AC01A9
:10199000C301B2010E94EC140E94A117562E672EBB
:1019A000782E892E262F372F482F592F692D7A2DE3
:1019B0008B2D9C2D0E94641587FD03C0952C53012F
:1019C000C82C892D9A2DAB2DBC2DF801828F938FB9
:1019D000A48FB58F37A2F801870186CFD09065011B
:1019E00000E010E080E090E021E4C22E2D2D3327AE
:1019F00027FD30954091660150E024173507C9F066
:101A0000C29E7001C39EF00C1124F701E959FE4FEC
:101A10007F01009731F00115110519F0B8010E94FE
:101A20006908D394FEE0DF1201C0D12CC801870100
:101A3000DDCF009731F00115110519F0B8010E94B2
:101A4000690830906501A12CB12C81E4282E832DEA
:101A5000992787FD90952091660130E082179307C2
:101A600009F442C0289E4001299E900C1124940143
:101A700029593E4F4901A114B10479F1D501979636
:101A80008C91811104C0F90187A1882331F1D5011E
:101A90005696CD90DD90ED90FC905997A701960158
:101AA000F401628D738D848D958D0E9468152B01D4
:101AB0003C01A7019601D5015A966D917D918D91BA
:101AC0009C915D970E946815AB01BC019301820156
:101AD000C5010E942E07F50117A23394FEE03F12C4
:101AE00001C0312C5401B3CFD5015696CD90DD9075
:101AF000ED90FC905997A701960160E070E0CB0152
:101B00000E9468152B013C01A7019601F501628D29
:101B1000738D848D958D0E946815AB01BC01930176
:101B20008201C5010E942E07D50197961C92A196AD
:101B30000FB6F894DEBF0FBECDBFDF91CF911F91DE
:101B40000F91FF90EF90DF90CF90BF90AF909F905C
:101B50008F907F906F905F904F903F902F900C945C
:101B60000410A1960FB6F894DEBF0FBECDBFDF9173
:101B7000CF911F910F91FF90EF90DF90CF90BF908A
:101B8000AF909F908F907F906F905F904F903F901D
:101B90002F9008950895EF92FF921F93CF93DF93B4
:101BA0001F92CDB7DEB7109166011F5F1E3009F49A
:101BB00010E0E12EFF24E7FCF0942091650130E075
:101BC0002E153F0529F489830E9415038981F5CFDD
:101BD000E091660191E4E99FF0011124E959FE4F7B
:101BE0008083109366010F90DF91CF911F91FF903A
:101BF000EF900C940410209166019091650181E0B2
:101C0000291301C080E008959091660180916501DB
:101C1000981749F08091650121E4829FC001112449
:101C200089599E4F089580E090E008959091660153
:101C300080916501981741F0809165018F5F8E302A
:101C400009F480E080936501089510926601109276
:101C5000650108958F929F92AF92BF92CF92DF92CB
:101C6000EF92FF920F931F9349015A016701780188
:101C70002CE137EC41EB52E40E943A170E940A171C
:101C80006093590170935A0180935B0190935C01BA
:101C900024E731ED45EB52E4C501B4010E943A1747
:101CA0000E940A1760935D0170935E0180935F014B
:101CB0009093600125E535E545E052E4C701B601A2
:101CC0000E943A170E940A176093610170936201A3
:101CD00080936301909364011092490110924A012C
:101CE00010924B0110924C018CE0EDE4F1E0DF0129
:101CF0001D928A95E9F71F910F91FF90EF90DF9069
:101D0000CF90BF90AF909F908F900895EF92FF92E9
:101D10000F931F931092660110926501E12CF12C34
:101D2000870120E030E040EA50E4CA01B9010E9496
:101D30002A0E1F910F91FF90EF9008958AB183773B
:101D40008AB987B1807C87B9089599B129B1221FDA
:101D50002227221F92FB992790F9922B21F44B996D
:101D600002C0811104C01092F5045D98089580931B
:101D7000F50408958091F5040895882311F05C9A84
:101D800008955C980895882311F05E9A08955E98EE
:101D90000895559A14BC15BCEEE6F0E08081816090
:101DA000808316BC549A80E00E94BD0E569A80E053
:101DB0000C94C30E8091010590910205A09103053A
:101DC000B09104054091FD045091FE046091FF0420
:101DD00070910005840F951FA61FB71F813828E357
:101DE000920721E0A207B10550F48093FD0490937F
:101DF000FE04A093FF04B093000580E0089580588E
:101E00009843A140B1098093FD049093FE04A093F0
:101E1000FF04B093000581E008959B01AC012034DC
:101E200086E038074105510520F420E436E040E023
:101E300050E060E070E788E399E30E940D182115F7
:101E4000310581E04807510518F4C90160E02FC051
:101E50002115310588E048075105A8F4BA01A90108
:101E6000E3E07695679557954795EA95D1F7CA01CE
:101E70009A01AB01F3E0220F331F441F551FFA955F
:101E8000D1F761E014C0BA01A90186E076956795A3
:101E9000579547958A95D1F7CA019A01AB0166E03B
:101EA000220F331F441F551F6A95D1F762E07091CE
:101EB00081006F5F787F672B60938100909389002A
:101EC0008093880020930105309302054093030519
:101ED0005093040508958F929F92AF92BF92CF9234
:101EE000DF92EF92FF92CF93DF934B015C01C091A1
:101EF0001B05D0911C056EA170E080E090E00E946F
:101F000003166B017C01C501B4010E9401164B014F
:101F10005C016A897B898C899D890E9401169B01DD
:101F2000AC01C501B4010E94681523E333E343E724
:101F30005FE30E943A172DEC3CEC4CE45DE30E9419
:101F4000ED149B01AC01C701B6010E943A170E9433
:101F5000D515862FDF91CF91FF90EF90DF90CF9036
:101F6000BF90AF909F908F900C94A50E1F93CF932E
:101F7000DF93811102C02BE301C023E098E0922798
:101F800035B1292F2873377C232B25B976E066E0FD
:101F9000A1E051E0BFE3C1E0D2E01AE12CE439E076
:101FA00046B181114B27552341F040FF06C0611116
:101FB00003C09C2750E001C06150AA2341F042FFBA
:101FC00009C0711102C09D2702C0715003C0552382
:101FD00081F0A0E045B1E92FE7704E2B45B9412FC4
:101FE0004A95F1F745B14E2745B9F9013197F1F717
:101FF000D7CF8CE0EDE1F5E0DF011D928A95E9F79E
:10200000DF91CF911F9108958091F80481110BC049
:1020100081E08093F80488E080931A0580916F0036
:10202000826080936F0008951092F80410921C054E
:1020300010921B05EFE6F0E080818D7F808380E0C9
:102040000C94A50E8091F80408959091F7049111D5
:1020500007C08093F60481E08093F7040C94950008
:1020600008958091F60408958091F704089580E220
:102070008093F6041092F704089560911D05709105
:102080001E0580911F05909120050E9403162CE1EA
:1020900037EC41EB52E40E946815089560912105E8
:1020A0007091220580912305909124050E940316CA
:1020B00024E731ED45EB52E40E94681508956091E4
:1020C00025057091260580912705909128050E948D
:1020D000031625E535E545E052E40E9468150895AC
:1020E0008F929F92AF92BF92CF92DF92EF92FF9228
:1020F0000F931F9349015A01670178012CE137ECD6
:1021000041EB52E40E943A170E940A1760931D05A2
:1021100070931E0580931F059093200524E731EDF1
:1021200045EB52E4C501B4010E943A170E940A1718
:1021300060932105709322058093230590932405D5
:1021400025E535E545E052E4C701B6010E943A179E
:102150000E940A1760932505709326058093270532
:10216000909328051F910F91FF90EF90DF90CF90F3
:10217000BF90AF909F908F900895EF92FF920F9332
:102180001F9384B18F6384B985B1807C886085B9E1
:10219000E1E8F0E080818F7E8083808188608083A9
:1021A000E0E8F0E080818D7F808380818E7F808376
:1021B00080818F73808380818F7C80831092B000B8
:1021C0001092B100E0E7F0E080818160808360E4FC
:1021D00076E080E090E00E940D0F80E00E94A50E66
:1021E0008CE0EDE1F5E0DF011D928A95E9F7E12C45
:1021F000F12C870120E030E040EA50E4CA01B90147
:102200000E9470101092FD041092FE041092FF04C0
:102210001092000510921C0510921B051092F704F5
:1022200080E28093F604109205051F910F91FF90B4
:10223000EF900C9414101F920F920FB60F9211246E
:102240005D9815BC0F900FBE0F901F9018951F92B0
:102250000F920FB60F9211248F9385B1887F85B9A5
:102260001092B1008F910F900FBE0F901F90189594
:102270001F920F920FB60F921124CF92DF92EF921E
:10228000FF920F931F932F933F934F935F936F93FF
:102290007F938F939F93AF93BF93CF93DF93EF93EE
:1022A000FF9380910505811178C381E08093050536
:1022B0008091F704882329F00E9414100E94250EB3
:1022C0006AC389B199B1991F9927991F82FB882701
:1022D00080F9892B11F44B9B03C080E00E94A50E6E
:1022E000309B02C084E20BC0319B02C085E207C074
:1022F000329B02C086E203C0339B04C08AE20E9484
:10230000251049C30E94BA0E90910101903120F42A
:10231000809101018F5F66C0811102C05D9861C02C
:1023200015BC5D9A823F08F05CC090E1899FD001A6
:1023300011244091010550910205609103057091AF
:102340000405252F362F472F55270E94F1176F3F81
:10235000710581059105D9F1D0F153E096958795E6
:10236000779567955A95D1F76F3F7105810591056E
:1023700081F178F143E096958795779567954A9531
:10238000D1F76F3F71058105910529F120F132E008
:1023900096958795779567953A95D1F76F3F710533
:1023A00081059105D1F0C8F022E096958795779543
:1023B00067952A95D1F76F3F71058105910529F041
:1023C00020F06FEF70E080E090E025E007C021E0B2
:1023D00005C022E003C023E001C024E0619566BD92
:1023E00025BD81E08093010195B180911A05887324
:1023F000977C892B85B985B1887F90911A05892BA7
:1024000085B98AEF8093B20082E08093B10078941E
:1024100080911B0590911C05892B09F072C00E94C8
:10242000040EEC0190931C0580931B05009719F492
:102430000E941410B0C28881823008F062C0C9A422
:10244000DAA4EBA4FCA4C092F904D092FA04E092BE
:10245000FB04F092FC0440E45CE960E070E040932F
:10246000FD045093FE046093FF0470930005C701C0
:10247000B6010E940D0F8881813061F480E00E94D6
:10248000A50E1092060510920705109208051092ED
:10249000090504C0C701B6010E946B0FE0911B053E
:1024A000F0911C0586859785A089B189B595A7957A
:1024B00097958795B095A095909581959F4FAF4F33
:1024C000BF4F8093160590931705A0931805B093FE
:1024D00019058093120590931305A0931405B093EA
:1024E000150580930E0590930F05A0931005B093EA
:1024F000110510920A0510920B0510920C0510920E
:102500000D05C0911B05D0911C05E881E23009F44E
:1025100033C250F0E43009F435C208F42FC2E5307C
:1025200009F039C280E02FC22D8520931A058091D1
:10253000160590911705A0911805B09119054981CC
:102540005A816B817C81840F951FA61FB71F8093D2
:10255000160590931705A0931805B09319054E859D
:102560005F8568897989181619061A061B0644F5CD
:10257000216020931A05841B950BA60BB70B809343
:10258000160590931705A0931805B093190580912F
:102590001D0590911E05A0911F05B091200523FFF8
:1025A00004C00197A109B10903C00196A11DB11D85
:1025B00080931D0590931E05A0931F05B0932005E1
:1025C0008091120590911305A0911405B091150505
:1025D0000D811E812F813885800F911FA21FB31F8F
:1025E0008093120590931305A0931405B0931505DD
:1025F000181619061A061B0654F520911A052260B2
:1026000020931A05841B950BA60BB70B809312051C
:1026100090931305A0931405B0931505809121059F
:1026200090912205A0912305B091240524FF04C0B8
:102630000197A109B10903C00196A11DB11D8093A5
:10264000210590932205A0932305B0932405809142
:102650000E0590910F05A0911005B0911105098507
:102660001A852B853C85800F911FA21FB31F809375
:102670000E0590930F05A0931005B0931105181641
:1026800019061A061B0654F520911A05246020939A
:102690001A05841B950BA60BB70B80930E05909320
:1026A0000F05A0931005B093110580912505909119
:1026B0002605A0912705B091280525FF04C00197A4
:1026C000A109B10903C00196A11DB11D8093250583
:1026D00090932605A0932705B0932805C0900A057E
:1026E000D0900B05E0900C05F0900D058FEFC81A07
:1026F000D80AE80AF80AC0920A05D0920B05E092BF
:102700000C05F0920D0580911A0598E089278093B9
:102710001A05C416D506E606F70608F028C18DA9E5
:102720009EA9AFA9B8ADC816D906EA06FB0608F0FF
:1027300040C00E94DA0E882309F42DC189A99AA904
:10274000ABA9BCA94091F9045091FA046091FB0433
:102750007091FC04840F951FA61FB71F8093F90486
:102760009093FA04A093FB04B093FC044A895B891C
:102770006C897D89481759076A077B0740F44093A5
:10278000F9045093FA046093FB047093FC04C09026
:10279000F904D090FA04E090FB04F090FC04C70127
:1027A000B6010E940D0F8881813009F064C080E07D
:1027B000DBC089AD9AADABADBCADC816D906EA0693
:1027C000FB0669F480E49CE9A0E0B0E08093FD049E
:1027D0009093FE04A093FF04B0930005DCC0C816DC
:1027E000D906EA06FB0608F44BC00E94DA0E8823DD
:1027F00009F4D1C04091F9045091FA046091FB04AE
:102800007091FC0489A99AA9ABA9BCA98417950762
:10281000A607B70768F4481B590B6A0B7B0B40935C
:10282000F9045093FA046093FB047093FC0408C00D
:102830001092F9041092FA041092FB041092FC0416
:102840008DA59EA5AFA5B8A94091F9045091FA04B1
:102850006091FB047091FC04481759076A077B07D5
:1028600008F095CF8093F9049093FA04A093FB04A9
:10287000B093FC048CCFC701B6010E946B0F8BC0D4
:102880006A897B898C899D890091F9041091FA04E9
:102890002091FB043091FC0406171707280739071D
:1028A00051F06093F9047093FA048093FB049093C1
:1028B000FC040E940D0F8881813009F054C0809182
:1028C000060590910705A0910805B09109051AE049
:1028D000CC0CDD1CEE1CFF1C1A95D1F7892B8A2B22
:1028E0008B2B41F4C0920605D0920705E0920805B3
:1028F000F092090540910605509107056091080581
:1029000070910905C416D506E606F70608F443C01B
:10291000ED9688819981AA81BB81840F951FA61F9E
:10292000B71F8093060590930705A0930805B09301
:102930000905F8940E941D027894282F30E0205851
:102940003109220F331FE0911B05F0911C0546A1B0
:10295000429FC001439F900D11246FEF70E00E94D1
:10296000F917862F01C08EA10E94A50E14C0E13078
:1029700061F40E94450209C081E001C080E00E942C
:10298000BD0E03C081E00E94C30E10921C05109280
:102990001B050E94160E10920505FF91EF91DF9125
:1029A000CF91BF91AF919F918F917F916F915F91E7
:1029B0004F913F912F911F910F91FF90EF90DF90DA
:1029C000CF900F900FBE0F901F90189580E00E943F
:1029D000B60F81E00C94B60F5058BB27AA270ED033
:1029E000C4C1B5D130F0BAD120F031F49F3F11F419
:1029F0001EF4AAC10EF4E095E7FB77C1E92FC6D11A
:102A000080F3BA17620773078407950718F071F40B
:102A10009EF5F5C10EF4E0950B2EBA2FA02D0B01FB
:102A2000B90190010C01CA01A0011124FF27591B13
:102A300099F0593F50F4503E68F11A16F040A22F19
:102A4000232F342F4427585FF3CF4695379527958A
:102A5000A795F0405395C9F77EF41F16BA0B620B89
:102A6000730B840BBAF09150A1F0FF0FBB1F661FD0
:102A7000771F881FC2F70EC0BA0F621F731F841F13
:102A800048F4879577956795B795F7959E3F08F039
:102A9000B3CF9395880F08F09927EE0F97958795F8
:102AA000089596D180F09F3740F491110EF4A8C19B
:102AB00060E070E080E89FE3089526F01B16611D3A
:102AC000711D811D18C132C1ECD008F481E0089558
:102AD0000CD04BC143D140F03AD130F021F45F3FEC
:102AE00019F003C151118CC12FC150D198F3992312
:102AF000C9F35523B1F3951B550BBB27AA276217C2
:102B00007307840738F09F5F5F4F220F331F441F06
:102B1000AA1FA9F333D00E2E3AF0E0E830D091503E
:102B20005040E695001CCAF729D0FE2F27D0660F2B
:102B3000771F881FBB1F261737074807AB07B0E86A
:102B400009F0BB0B802DBF01FF2793585F4F2AF080
:102B50009E3F510568F0C9C053C15F3FECF3983EFA
:102B6000DCF3869577956795B795F7959F5FC9F7DD
:102B7000880F911D9695879597F90895E1E0660F66
:102B8000771F881FBB1F621773078407BA0720F0DF
:102B9000621B730B840BBA0BEE1F88F7E095089548
:102BA00004D06894B1112CC10895F8D088F09F57D3
:102BB00090F0B92F9927B751A0F0D1F0660F771F89
:102BC000881F991F1AF0BA95C9F712C0B13081F069
:102BD00016D1B1E0089513C1672F782F8827B85F09
:102BE00039F0B93FCCF3869577956795B395D9F7CA
:102BF0003EF490958095709561957F4F8F4F9F4FD4
:102C00000895E89409C097FB3EF4909580957095DF
:102C100061957F4F8F4F9F4F9923A9F0F92F96E928
:102C2000BB279395F695879577956795B795F1119D
:102C3000F8CFFAF4BB0F11F460FF1BC06F5F7F4F3A
:102C40008F4F9F4F16C0882311F096E911C077234C
:102C500021F09EE8872F762F05C0662371F096E855
:102C6000862F70E060E02AF09A95660F771F881F24
:102C7000DAF7880F9695879597F90895A9D080F08F
:102C80009F3740F491110EF0BBC060E070E080E827
:102C90009FEB089526F41B16611D711D811D2BC02D
:102CA00045C0990F0008550FAA0BE0E8FEEF161675
:102CB0001706E807F907C0F012161306E407F50730
:102CC00098F0621B730B840B950B39F40A2661F0A4
:102CD000232B242B252B21F408950A2609F4A14047
:102CE000A6958FEF811D811D089597F99F6780E854
:102CF00070E060E00895882371F4772321F0985004
:102D0000872B762F07C0662311F499270DC09051A9
:102D1000862B70E060E02AF09A95660F771F881F77
:102D2000DAF7880F9695879597F908959F3F31F0C8
:102D3000915020F4879577956795B795880F911DE9
:102D40009695879597F908959FEF80EC0895002454
:102D50000A941616170618060906089500240A9400
:102D600012161306140605060895092E0394000C86
:102D700011F4882352F0BB0F40F4BF2B11F460FF15
:102D800004C06F5F7F4F8F4F9F4F089557FD90583E
:102D9000440F551F59F05F3F71F04795880F97FB1F
:102DA000991F61F09F3F79F08795089512161306D9
:102DB0001406551FF2CF4695F1DF08C01616170608
:102DC0001806991FF1CF869571056105089408953D
:102DD000E5DFA0F0BEE7B91788F4BB279F3860F4A1
:102DE0001616B11D672F782F8827985FF7CF869525
:102DF00077956795B11D93959639C8F30895E89432
:102E0000BB2766277727CB0197F908954ADF08F497
:102E10008FEF0895C3DF58F19E5758F19851A0F0F5
:102E2000E9F0983020F5092E9927660F771F881F43
:102E3000991F0A94D1F712C0062E672F782F882782
:102E4000985F11F4000C07C0993FB4F3869577950D
:102E500067959395D9F7611D711D811D3EF490957D
:102E60008095709561957F4F8F4F9F4F089568941F
:102E7000C7CFC5CF0BD079CF6ADF28F06FDF18F04E
:102E8000952309F032CF60CF1124BACF7FDFA0F3B2
:102E9000959FD1F3950F50E0551F629FF001729FEF
:102EA000BB27F00DB11D639FAA27F00DB11DAA1F0E
:102EB000649F6627B00DA11D661F829F2227B00D5B
:102EC000A11D621F739FB00DA11D621F839FA00DE6
:102ED000611D221F749F3327A00D611D231F849F36
:102EE000600D211D822F762F6A2F11249F5750408D
:102EF0008AF0E1F088234AF0EE0FFF1FBB1F661F28
:102F0000771F881F91505040A9F79E3F510570F0E0
:102F1000ECCE76CF5F3FECF3983EDCF38695779569
:102F20006795B795F795E7959F5FC1F7FE2B880FDB
:102F3000911D9695879597F9089511F40EF404CF95
:102F4000F5CE2CDFD0F39923D9F3CEF39F57550B51
:102F500087FF35D00024A0E640EA900180585695BE
:102F6000979528F4805C660F771F881F20F026173E
:102F70003707480730F4621B730B840B2029312973
:102F80004A2BA69517940794202531254A2758F7F0
:102F9000660F771F881F20F026173707480730F481
:102FA000620B730B840B200D311D411DA09581F721
:102FB000B901842F9158880F96958795089591505F
:102FC0005040660F771F881FD2F708950E9435186A
:102FD000A59F900DB49F900DA49F800D911D11246D
:102FE0000895B7FF0C94E6170E94E617821B930B17
:102FF000089597FB072E16F4009407D077FD09D0AB
:103000000E94441807FC05D03EF4909581959F4F8F
:103010000895709561957F4F0895A1E21A2EAA1B1D
:10302000BB1BFD010DC0AA1FBB1FEE1FFF1FA21778
:10303000B307E407F50720F0A21BB30BE40BF50B75
:10304000661F771F881F991F1A9469F760957095FE
:10305000809590959B01AC01BD01CF010895EE0FC5
:10306000FF1F0590F491E02D0994A29FB001B39F3A
:10307000C001A39F700D811D1124911DB29F700D81
:10308000811D1124911D0895AA1BBB1B51E107C08E
:10309000AA1FBB1FA617B70710F0A61BB70B881FE8
:1030A000991F5A95A9F780959095BC01CD01089577
:0430B000F894FFCFC2
:0230B400010118
:00000001FF
