:100000000C945A000C9481000C9481000C94810093
:100010000C9481000C9481000C9481000C9481005C
:100020000C9481000C9421110C9481000C943211D9
:100030000C9481000C9481000C9481000C9481003C
:100040000C9415110C9481000C946B010C941A0102
:100050000C9481000C9481000C9481000C9481001C
:100060000C9481000C9481001A07D9042D05FE041C
:100070003A053D05400598059805D205D505D805F2
:10008000DA05DC05DE059D0613078B061307B306AC
:10009000BE06C906D406E906FE0613071307A8061E
:1000A0001307130796061307130713071307FB0518
:1000B0002B065B06E8EAF6E085EC98E001C0819348
:1000C000EF3FF907E0F3D9F311241FBECFEFD8E0DB
:1000D000DEBFCDBF11E0A0E0B1E0E4EBFFE202C083
:1000E00005900D92A230B107D9F716E0A2E0B1E079
:1000F00001C01D92A83AB107E1F70E9483000C9459
:10010000D8170C94000078940E94B2000E949802C4
:100110000E94860E0E94B7100E949E0E0E94CD0E75
:100120000E94BA0480E090E00895109203011092BA
:1001300002010895909109019F5F903809F490E0C1
:10014000209108019217E1F3E0910901F0E0E85DE8
:10015000F94F8083909309018091C1008062809360
:10016000C10008951092C50080E18093C400E0ECC6
:10017000F0E080818D7F8083E1ECF0E08081806120
:1001800080838081886080838081806880838EE71F
:100190000C949A00CF92DF92EF92FF92CF93C82FE8
:1001A000CB01BA0120E030E04AE754E40E94C216D5
:1001B0000E9492166B017C0188EFF81A8C2D8068E2
:1001C0000E949A00D701C60180789F73AA27BB2797
:1001D00027E0B695A795979587952A95D1F78058EA
:1001E0000E949A00D701C6018827907CAF71BB2777
:1001F0003EE0B695A795979587953A95D1F78058A3
:100200000E949A00D701C60188279927A07EBF7057
:1002100045E1B695A795979587954A95D1F780586A
:100220000E949A008C2FCF91FF90EF90DF90CF909B
:100230000C949A001F920F920FB60F9211248F9375
:100240009F93EF93FF93809108019091050199236B
:1002500031F095E09093C600109205010DC0E82F93
:10026000F0E0E85DF94F90819093C6008F5F803891
:1002700009F480E08093080190910901891305C079
:100280008091C1008F7D8093C100FF91EF919F917C
:100290008F910F900FBE0F901F901895E0910A015B
:1002A000F0E0E85DFA4F808190910A019F5F9093A2
:1002B0000A01909104019F5F90930401903151F4E1
:1002C00091E0909305019091C10090629093C100DC
:1002D0001092040108951F920F920FB60F921124ED
:1002E0002F933F934F935F936F937F938F939F933E
:1002F000AF93BF93CF93EF93FF93C091C6008091CC
:100300000001882329F010920001C09307013DC02D
:1003100081E08093000180910701C81719F08DE3F7
:100320000E941F10C031F8F4C13011F481E224C0E2
:10033000C23069F4109203011092020110920A0176
:1003400010920B01109204010E9431101EC0C330A4
:1003500019F40E94010319C0C43019F40E94050366
:1003600014C083E209C0E0910B0181E08E0F9091EF
:100370000A01891304C082E20E941F1006C0F0E047
:10038000E85DFA4FC08380930B01FF91EF91CF910D
:10039000BF91AF919F918F917F916F915F914F919D
:1003A0003F912F910F900FBE0F901F901895CF93F4
:1003B000C1E080910301882301F18091020188232B
:1003C000C9F01092060190910A0180910B019813D7
:1003D0000BC080910601811104C00E940903C093E3
:1003E00006010E941503EFCF0E944E01813111F4E6
:1003F000109203010E941503DCCF10920601C1E0A8
:1004000090910A0180910B0198130BC08091060115
:10041000811104C00E940903C09306010E941503C4
:10042000EFCF0E944E01803131F481E080930301CF
:100430001092020181E4CF910895809103018823F5
:10044000C9F080910201811115C090910A0180913B
:100450000B01981303C00E9409030CC00E944E01B7
:1004600087FD09C0813119F41092030103C083E2B2
:100470000E941F1080E8089520910A0190910B01BD
:1004800081E0291301C080E0089581E0809302019A
:1004900008950F931F936091140170E080E090E045
:1004A000605871098109910927E0660F771F881F3D
:1004B000991F2A95D1F70091130110E020E030E058
:1004C0000058110921093109600F711F821F931F04
:1004D00037E0660F771F881F991F3A95D1F7009173
:1004E000120110E020E030E0005811092109310923
:1004F000600F711F821F931F47E0660F771F881FD1
:10050000991F4A95D1F720911101620F711D811D2C
:10051000911D60587109810998400E948B1520E057
:1005200030E04AE754E40E94F0141F910F910895BF
:1005300021E02093160180E090E0AAEFB5E48093DB
:10054000170190931801A0931901B0931A0110920A
:100550001B018CE0E5E2F1E0DF011D928A95E9F7ED
:1005600010921C0110921D0110921E0110921F0189
:100570001092200110922101109222011092230169
:100580001092240180E090E0A0EAB0E48093310171
:1005900090933201A0933301B093340180933501DD
:1005A00090933601A0933701B0933801109239012E
:1005B00010923A0110923B0110923C0180933D0150
:1005C00090933E01A0933F01B0934001809341017D
:1005D00090934201A0934301B093440110924501CE
:1005E0001092460110924701109248012093100189
:1005F00020930F0110920E0110920D0120930C0117
:10060000089581E080931001089581E080930F01A7
:10061000089580910D0190910E01019690930E0125
:1006200080930D0110920C010895CF92DF92EF920A
:10063000FF920F931F93CF93DF9300D000D0CDB7DD
:10064000DEB789B199B1991F9927991F82FB882735
:1006500080F9892B11F44B9B03C080E00E94A50E0A
:100660000E942E108823D1F00E94250E0E9459105E
:100670006B017C010E9448109B01AC0169833A83A5
:100680004B835C830E9437108701760129813A8170
:100690004B815C810E942A0E1092150180911001FD
:1006A000811105C080910F01882309F456C1109271
:1006B00010010E94FB0D811112C00E943C028111A9
:1006C0000EC00E942E1081110AC081E40E949A007F
:1006D00083B7816083BF889583B78E7F83BF89B1DD
:1006E00099B1991F9927991F82FB882780F9892B37
:1006F00019F082E40E949A004B9B03C083E40E949D
:100700009A000E942B10182F803211F00E949A003C
:10071000309B05C0143219F084E20E949A00319B8C
:1007200005C0153219F085E20E949A00329B05C07F
:10073000163219F086E20E949A00339B05C01A32E5
:1007400019F08AE20E949A000E943710E091240179
:1007500023E0E29FF0011124EE0FFF1FEE0FFF1FB9
:10076000EA5EFE4F238D348D458D568D0E947414A4
:10077000AB01BC0188E70E94CA000E944810E091CA
:10078000240123E0E29FF0011124EE0FFF1FEE0F82
:10079000FF1FE65EFE4F238D348D458D568D0E94E2
:1007A0007414AB01BC0189E70E94CA000E94591071
:1007B000E091240123E0E29FF0011124EE0FFF1FDE
:1007C000EE0FFF1FE25EFE4F238D348D458D568D5B
:1007D0000E947414AB01BC018AE70E94CA00809198
:1007E0000C01811110C060910D0170910E0180E02B
:1007F00090E00E948915AB01BC0187E70E94CA0006
:1008000081E080930C01E8EAF6E0BF01685A764087
:100810008081853C09F48AC080E090E00E948915BF
:10082000AB01BC0185E70E94CA0080910F018823BB
:1008300009F484C010920F0140E050E265ED74E4C9
:1008400086E70E94CA002091310130913201409127
:1008500033015091340160913D0170913E018091CE
:100860003F01909140010E947414AB01BC0181E6EC
:100870000E94CA0020913501309136014091370124
:100880005091380160914101709142018091430182
:10089000909144010E947414AB01BC0182E60E9455
:1008A000CA002091390130913A0140913B015091A9
:1008B0003C01609145017091460180914701909102
:1008C00048010E947414AB01BC0183E60E94CA0077
:1008D00040911701509118016091190170911A010E
:1008E00087E60E94CA0060911B0170E080E090E002
:1008F0000E948915AB01BC0188E60E94CA004091A4
:100900001C0150911D0160911E0170911F0189E62B
:100910000E94CA0040912001509121016091220162
:10092000709123018AE60E94CA0008C088E0EF3F68
:10093000F80711F008F070CF319667CF86E00F907E
:100940000F900F900F90DF91CF911F910F91FF901B
:10095000EF90DF90CF900C949A000F900F900F9033
:100960000F90DF91CF911F910F91FF90EF90DF904B
:10097000CF900895C1E00E94D701182F0E942E1039
:10098000882319F00E941503F6CF17FD56C28FEB8E
:10099000810F8A3108F018C1412F50E0FA01E1546B
:1009A000F109EF30F10508F00DC1EC5CFF4F0C943C
:1009B000AF17A0901701B0901801C0901901D09006
:1009C0001A01E0902D01F0902E0100912F0110915D
:1009D00030012091290130912A0140912B01509141
:1009E0002C01609125017091260180912701909141
:1009F00028011F921F921F921F922CC0A0901701D6
:100A0000B0901801C0901901D0901A01E0902D010A
:100A1000F0902E0100912F011091300120912901B9
:100A200030912A0140912B0150912C0160912501B8
:100A3000709126018091270190912801E091230176
:100A4000EF93E0912201EF93E0912101EF93E09188
:100A50002001EF9380901B0164C060911C01709194
:100A60001D0180911E0190911F0140911B010E9468
:100A7000CA0DE0C110921601DDC1C0931601DAC1A2
:100A80000E941C10882319F00E941503F9CF0E94C0
:100A90006E14E12CF12C8701A8019701C801B70160
:100AA0000E942A0E1092240160913101709132014E
:100AB0008091330190913401609325017093260158
:100AC00080932701909328012091350130913601C0
:100AD00040913701509138012093290130932A0128
:100AE00040932B0150932C01E0903901F0903A0192
:100AF00000913B0110913C01E0922D01F0922E01FA
:100B000000932F0110933001A0901701B0901801AD
:100B1000C0901901D0901A011F921F921F921F922C
:100B2000812C0E94D3080F900F900F900F9082C1DC
:100B30000E941C10882319F00E941503F9CF21E0B0
:100B400030E0193411F020E030E08901000F111F6E
:100B5000020F131F0E943710F801EE0FFF1FEE0F58
:100B6000FF1FEA5EFE4F638F748F858F968F0E9402
:100B70004810F801EE0FFF1FEE0FFF1FE65EFE4F5D
:100B8000638F748F858F968F0E945910F801EE0F36
:100B9000FF1FEE0FFF1FE25EFE4F638F748F858F86
:100BA000968F48C11092240145C1C093240142C1CF
:100BB00082E005C083E003C084E001C085E00E94BC
:100BC000CB0D38C18CE334C18FE9810F8A3108F035
:100BD0002EC180911501843009F027C1812F90E04A
:100BE000FC01E456F109E731F10508F01CC1ED5BA9
:100BF000FF4F0C94AF1780911601813099F40E9439
:100C00004902E091240123E0E29FF0011124EE0F5C
:100C1000FF1FEE0FFF1FEA5EFE4F238D348D458DC3
:100C2000568D0EC0C0902501D0902601E09027017E
:100C3000F09028010E9449029B01AC01C701B60156
:100C40000E947514609325017093260180932701FB
:100C500090932801EFC080911601813099F40E9491
:100C60004902E091240123E0E29FF0011124EE0FFC
:100C7000FF1FEE0FFF1FE65EFE4F238D348D458D67
:100C8000568D0EC0C0902901D0902A01E0902B0112
:100C9000F0902C010E9449029B01AC01C701B601F2
:100CA0000E9475146093290170932A0180932B018F
:100CB00090932C01BFC080911601813099F40E945D
:100CC0004902E091240123E0E29FF0011124EE0F9C
:100CD000FF1FEE0FFF1FE25EFE4F238D348D458D0B
:100CE000568D0EC0C0902D01D0902E01E0902F01A6
:100CF000F09030010E9449029B01AC01C701B6018E
:100D00000E94751460932D0170932E0180932F0122
:100D1000909330018FC00E94490260931701709335
:100D200018018093190190931A0184C00E9449020E
:100D30000E945D1560931B017DC00E944902609373
:100D40001C0170931D0180931E0190931F0172C0BE
:100D50000E94490260932001709321018093220137
:100D60009093230167C00E94490260933101709300
:100D7000320180933301909334015CC00E94490298
:100D80006093350170933601809337019093380159
:100D900051C00E9449026093390170933A018093D7
:100DA0003B0190933C0146C00E94490220913101D1
:100DB0003091320140913301509134010E947514F9
:100DC00060933D0170933E0180933F0190934001F9
:100DD00031C00E9449022091350130913601409185
:100DE0003701509138010E9475146093410170934E
:100DF000420180934301909344011CC00E94490228
:100E00002091390130913A0140913B0150913C01D0
:100E10000E947514609345017093460180934701C9
:100E20009093480107C08EE303C08AE301C083E2C8
:100E30000E941F1010921501A5CDE0911501E4301C
:100E400048F481E08E0F80931501F0E0EF5EFE4FD5
:100E5000108398CD8AE30E941F1094CD2F923F9269
:100E60004F925F926F927F928F929F92AF92BF92BA
:100E7000CF92DF92EF92FF920F931F93CF93DF9366
:100E8000CDB7DEB760970FB6F894DEBF0FBECDBF0B
:100E90001C012A013B0148015901FC016289738947
:100EA000848995890E9489156B017C01A3019201B7
:100EB0000E94C2160E94D9140E945D152B013C01AC
:100EC000F10161A772A783A794A7A5019401C701A7
:100ED000B6010E94C2160E94D9140E945D154B01F2
:100EE0005C01F10165A776A787A790AB21A932A97C
:100EF00043A954A9A0EEBEE20E946E1769837A83CB
:100F00008B839C830E948B156D837E838F83988750
:100F1000C301B2010E9489152B013C01A701960172
:100F2000C701B6010E94C2166B017C01A3019201A8
:100F3000C301B2010E94C21669877A878B879C879A
:100F40002D813E814F815885CA01B9010E947514D7
:100F50006D877E878F87988B29853A854B855C8541
:100F6000C701B6010E9474142D853E854F855889AE
:100F70000E94F0140E94D9140E9458152B013C01C4
:100F8000C501B4010E9489159B01AC010E94C216E3
:100F90004B015C01A70196010E9474146B017C0156
:100FA00069817A818B819C819095809570956195FE
:100FB0007F4F8F4F9F4F0E948B159B01AC010E946A
:100FC00075149B01AC01C701B6010E94F0140E9488
:100FD000C615F101C684D784E088F188A70196017F
:100FE000241935094609570929833A834B835C83C1
:100FF0000E94581529813A814B815C81261B370B51
:10100000480B590BDA01C90157FF3DC0C701B601B2
:101010000E948B159B01AC016D857E858F8598891B
:101020000E94C21629853A854B855C850E947414FE
:10103000A50194010E9475144B015C0120E030E091
:1010400040E850E46D817E818F8198850E94C216B0
:101050009B01AC01C501B4010E94F0140E94D91497
:101060000E94581597FF03C060E070E0CB012B0190
:101070003C01C616D706E806F90614F42601370126
:1010800080E090E0DC01F10145AA56AA67AA70AEA3
:10109000840D951DA61DB71D81AF92AFA3AFB4AF50
:1010A00060960FB6F894DEBF0FBECDBFDF91CF9133
:1010B0001F910F91FF90EF90DF90CF90BF90AF9076
:1010C0009F908F907F906F905F904F903F902F9068
:1010D00008954F925F926F927F92AF92BF92CF929C
:1010E000DF92EF92FF920F931F93CF93DF938C01C8
:1010F000EB01FC0180A5811147C0428C538C648CAC
:10110000758CAA8CBB8CCC8CDD8C9501A601C3019F
:10111000B2010E94EC1487FF37C0A3019201C30102
:10112000B2010E94C2162B013C0120E03AEB4BE5D4
:101130005AECF80162A173A184A195A10E94C21684
:101140009B01AC01C301B2010E9474140E942917D3
:101150007B018C019B01AC01B501C6010E94EC141E
:1011600087FF02C0750186019701A801B501C6017C
:101170000E94EC14882341F0A701B8014A8F5B8FCD
:101180006C8F7D8F81E08FA3DF91CF911F910F91A5
:10119000FF90EF90DF90CF90BF90AF907F906F90D7
:1011A0005F904F9008952F923F924F925F926F926F
:1011B0007F928F929F92AF92BF92CF92DF92EF92E7
:1011C000FF920F931F93CF93DF93CDB7DEB7A19715
:1011D0000FB6F894DEBF0FBECDBF29013A01E982F8
:1011E000FA820B831C83AA86BB86CC86DD86CEA8BA
:1011F000DFA8E8ACF9AC2CE137EC41EB52E40E94FB
:10120000C2160E9492166E8B7F8B888F998F24E76F
:1012100031ED45EB52E4C301B2010E94C2160E94B7
:1012200092166A8F7B8F8C8F9D8F25E535E545E083
:1012300052E469817A818B819C810E94C2160E944E
:1012400092166E8F7F8F88A399A340906601242DFC
:101250002F5F29872E3009F419864984042D112720
:1012600007FD10958091650190E08017910719F4B2
:101270000E941503F7CF8091660121E4829F30011F
:101280001124A30149595E4F5A83498320E030E07D
:10129000A901C701B6010E94EC148823E1F081E0A6
:1012A000A981BA818C932CE137EC41EB52E4C70160
:1012B000B6010E94C21620E030E040E854E40E94EB
:1012C000C2160E949216E981FA81FD9660837183AD
:1012D0008283938303C0E981FA811082A981BA8154
:1012E00096968C9296971D961C928091590190919A
:1012F0005A01A0915B01B0915C014E885F88688CB7
:10130000798C481659066A067B0624F428E0E981A0
:10131000FA81258700915D0110915E0120915F01A6
:10132000309160014A8C5B8C6C8C7D8C4016510630
:10133000620673062CF4E981FA8145854061458790
:10134000C0906101D0906201E0906301F09064016F
:101350004E8C5F8C68A079A04C145D046E047F04F1
:101360002CF4E981FA814585406245874E885F8883
:10137000688C798C481A590A6A0A7B0AC301B2013F
:101380004D825E826F82788677FE0BC0662477245A
:101390004301661A770A880A990A6D827E828F82D3
:1013A00098868D809E80AF80B884A981BA8111967D
:1013B0008D929D92AD92BC9214978A8C9B8CAC8C32
:1013C000BD8C801A910AA20AB30A24013501B7FE26
:1013D00007C0442455243201481859086A087B087C
:1013E000E981FA8145825682678270862E8D3F8D13
:1013F00048A159A12C193D094E095F0969017A01DB
:101400002A8B3B8B4C8B5D8B57FF0BC022273327DE
:10141000A9012C193D094E095F092A8B3B8B4C8B86
:101420005D8B2A893B894C895D89A981BA8119968E
:101430002D933D934D935C931C974E865F86688AEF
:10144000798A2D813E814F81588542165306640664
:10145000750620F42E873F87488B598B4E845F8416
:10146000688879882A893B894C895D8942165306A8
:101470006406750610F429013A01A981BA811E9605
:101480004D925D926D927C9251974114510461048A
:10149000710409F466C30E948B152CE137EC41EB13
:1014A00052E40E94F0146E877F87888B998BC50168
:1014B000B4010E948B1524E731ED45EB52E40E9404
:1014C000F0146A8B7B8B8C8B9D8BC701B6010E94BD
:1014D0008B1525E535E545E052E40E94F0144B01FB
:1014E0005C012E853F8548895989CA01B9010E944E
:1014F000C2166B017C012A893B894C895D89CA012E
:10150000B9010E94C2169B01AC01C701B6010E943D
:1015100075146B017C01A5019401C501B4010E9401
:10152000C2169B01AC01C701B6010E9475140E944E
:1015300029176D837E838F839887E981FA8162A35F
:1015400073A384A395A39B01AC0160E070E080E8E5
:101550009FE30E94F0146B017C018A859B85AC851A
:10156000BD85E981FA81868B978BA08FB18FC301EE
:10157000B2010E948B152B013C01A70196016A85DF
:101580007B858C859D850E94C2169B01AC01C301A1
:10159000B2010E94C2160E94D9140E945D15A98151
:1015A000BA8152966D937D938D939C935597A70125
:1015B0009601C301B2010E94C21620E03AEB4BED46
:1015C00059E40E94C21620E030E84BE356E40E9442
:1015D000F0140E94D9140E945815E981FA8161AB78
:1015E00072AB83AB94ABA70196016E857F8588892A
:1015F00099890E94C2166E877F87888B998BA70175
:1016000096016A897B898C899D890E94C2166A8BA2
:101610007B8B8C8B9D8BA7019601C501B4010E9429
:10162000C2162B013C0190916601809165019817CB
:1016300009F4A9C00091490110914A0120904B0181
:1016400030904C0120E030E0A901B801C1010E94B6
:101650008E1618160CF097C080914D0190914E0196
:10166000A0914F01B0915001BC01CD0190582E8541
:101670003F85488959890E94C2166B017C012091DF
:1016800051013091520140915301509154016A89A6
:101690007B898C899D890E94C2169B01AC01C70180
:1016A000B6010E9474146B017C01209155013091A8
:1016B00056014091570150915801C301B2010E9457
:1016C000C2169B01AC01C701B6010E9474146B01E4
:1016D0007C0123E333E343E75FE30E94EC1487FFDD
:1016E00052C02A853B854C855D85B801C1010E94A9
:1016F000EC1487FD04C00A851B852C843D8423E3FC
:1017000033E343E75FEBC701B6010E948E1618165C
:10171000F4F5A701960160E070E080E89FE30E9485
:10172000741420E030E040E05FE30E94C2160E94A3
:1017300029176B017C0120E030EC48E256E40E945E
:10174000C2164B015C01A701960160E070E080E8E1
:101750009FE30E9474149B01AC01C501B4010E9477
:10176000F0140E9429176B01F82EE92E9B01482FD7
:10177000592FB801C1010E94EC1487FD08C08601F1
:101780002F2C3E2C04C000E010E0212C312CC8018D
:10179000D101E981FA81868F978FA0A3B1A320E0C0
:1017A0003AEB4BE55AEC6D817E818F8198850E94E2
:1017B000C2169B01AC0160E070E0CB010E94741482
:1017C0000E9429176B01F82EE92E9B01482F592FF3
:1017D000B801C1010E94EC1487FF03C0302F212FF4
:1017E00004C03C2D2D2D2F2C3E2C832F922FD10168
:1017F000E981FA81828F938FA48FB58F96014F2D47
:101800005E2D6A857B858C859D850E94EC1418165B
:1018100034F081E0A981BA8198968C9303C0E98164
:10182000FA8110A681E0A981BA8197968C938E8463
:101830009F84A888B98880924D0190924E01A09211
:101840004F01B09250018A889B88AC88BD888092F5
:10185000510190925201A0925301B09254014092D2
:1018600055015092560160925701709258018A8535
:101870009B85AC85BD858093490190934A01A093D7
:101880004B01B0934C019984909266014E885F8819
:10189000688C798C4092590150925A0160925B0198
:1018A00070925C016A8C7B8C8C8C9D8C60925D014B
:1018B00070925E0180925F01909260018E8C9F8C8D
:1018C000A8A0B9A08092610190926201A0926301E8
:1018D000B0926401D0906601E0E0F0E000E010E03A
:1018E00041E4242E332433948091650190E02D2D22
:1018F000332727FD30952817390709F46FC0D11019
:1019000002C03EE0D32EDA94222D3D2D3203700129
:101910001124A70149595E4F7A010115110509F4F7
:101920005AC0309709F457C0D80198968C9198976F
:101930005E969C905E975F96AC905F979096BC90F9
:1019400090979196CC9081113CC0428C538C648CC2
:10195000758CA3019201692D7A2D8B2D9C2D0E94EF
:101960008E16181674F5A3019201C301B2010E94EC
:10197000C2162B013C0120E03AEB4BE55AECF80192
:1019800062A173A184A195A10E94C2169B01AC0122
:10199000C301B2010E9474140E942917562E672EAB
:1019A000782E892E262F372F482F592F692D7A2DE3
:1019B0008B2D9C2D0E94EC1487FD03C0952C5301A8
:1019C000C82C892D9A2DAB2DBC2DF801828F938FB9
:1019D000A48FB58F37A2F801870186CFD09065011B
:1019E00000E010E080E090E021E4C22E2D2D3327AE
:1019F00027FD30954091660150E024173507C9F066
:101A0000C29E7001C39EF00C1124F701E959FE4FEC
:101A10007F01009731F00115110519F0B8010E94FE
:101A20006908D394FEE0DF1201C0D12CC801870100
:101A3000DDCF009731F00115110519F0B8010E94B2
:101A4000690830906501A12CB12C81E4282E832DEA
:101A5000992787FD90952091660130E082179307C2
:101A600009F442C0289E4001299E900C1124940143
:101A700029593E4F4901A114B10479F1D501979636
:101A80008C91811104C0F90187A1882331F1D5011E
:101A90005696CD90DD90ED90FC905997A701960158
:101AA000F401628D738D848D958D0E94F0142B014D
:101AB0003C01A7019601D5015A966D917D918D91BA
:101AC0009C915D970E94F014AB01BC0193018201CF
:101AD000C5010E942E07F50117A23394FEE03F12C4
:101AE00001C0312C5401B3CFD5015696CD90DD9075
:101AF000ED90FC905997A701960160E070E0CB0152
:101B00000E94F0142B013C01A7019601F501628DA2
:101B1000738D848D958D0E94F014AB01BC019301EF
:101B20008201C5010E942E07D50197961C92A196AD
:101B30000FB6F894DEBF0FBECDBFDF91CF911F91DE
:101B40000F91FF90EF90DF90CF90BF90AF909F905C
:101B50008F907F906F905F904F903F902F900C945C
:101B6000FE0FA1960FB6F894DEBF0FBECDBFDF917A
:101B7000CF911F910F91FF90EF90DF90CF90BF908A
:101B8000AF909F908F907F906F905F904F903F901D
:101B90002F9008950895EF92FF921F93CF93DF93B4
:101BA0001F92CDB7DEB7109166011F5F1E3009F49A
:101BB00010E0E12EFF24E7FCF0942091650130E075
:101BC0002E153F0529F489830E9415038981F5CFDD
:101BD000E091660191E4E99FF0011124E959FE4F7B
:101BE0008083109366010F90DF91CF911F91FF903A
:101BF000EF900C94FE0F209166019091650181E0B9
:101C0000291301C080E008959091660180916501DB
:101C1000981749F08091650121E4829FC001112449
:101C200089599E4F089580E090E008959091660153
:101C300080916501981741F0809165018F5F8E302A
:101C400009F480E080936501089510926601109276
:101C5000650108958F929F92AF92BF92CF92DF92CB
:101C6000EF92FF920F931F9349015A016701780188
:101C70002CE137EC41EB52E40E94C2160E9492160E
:101C80006093590170935A0180935B0190935C01BA
:101C900024E731ED45EB52E4C501B4010E94C216C0
:101CA0000E94921660935D0170935E0180935F01C4
:101CB0009093600125E535E545E052E4C701B601A2
:101CC0000E94C2160E949216609361017093620195
:101CD00080936301909364011092490110924A012C
:101CE00010924B0110924C018CE0EDE4F1E0DF0129
:101CF0001D928A95E9F71F910F91FF90EF90DF9069
:101D0000CF90BF90AF909F908F900895EF92FF92E9
:101D10000F931F931092660110926501E12CF12C34
:101D2000870120E030E040EA50E4CA01B9010E9496
:101D30002A0E1F910F91FF90EF9008958AB183773B
:101D40008AB987B1807C87B9089599B129B1221FDA
:101D50002227221F92FB992790F9922B11F44B9B7B
:101D600002C018BC01C088BD893210F082E005C0F5
:101D70008B3010F083E001C084E085BD089588B504
:101D80000895882311F05C9A08955C98089588233B
:101D900011F05E9A08955E980895559A88E085BD81
:101DA00081E084BD84B5806284BD8FEF87BD18BC9F
:101DB000549A80E00E94C10E569A80E00C94C70E9F
:101DC0008091000590910105A0910205B091030555
:101DD0004091FC045091FD046091FE047091FF0459
:101DE000840F951FA61FB71F813828E3920721E0B3
:101DF000A207B10550F48093FC049093FD04A093D6
:101E0000FE04B093FF0480E0089580589843A140F9
:101E1000B1098093FC049093FD04A093FE04B09359
:101E2000FF0481E008959B01AC01203486E038076F
:101E30004105510520F420E436E040E050E060E048
:101E400070E788E399E30E948D172115310581E041
:101E50004807510518F4C90160E02FC0211531056C
:101E600088E048075105A8F4BA01A901E3E0769596
:101E7000679557954795EA95D1F7CA019A01AB0145
:101E8000F3E0220F331F441F551FFA95D1F761E08D
:101E900014C0BA01A90186E07695679557954795D4
:101EA0008A95D1F7CA019A01AB0166E0220F331F70
:101EB000441F551F6A95D1F762E0709181006F5FF2
:101EC000787F672B609381009093890080938800CE
:101ED00020930005309301054093020550930305BC
:101EE00008958F929F92AF92BF92CF92DF92EF921E
:101EF000FF92CF93DF934B015C01C0911A05D09103
:101F00001B056EA170E080E090E00E948B156B01D4
:101F10007C01C501B4010E9489154B015C016A89ED
:101F20007B898C899D890E9489159B01AC01C50123
:101F3000B4010E94F0149B01AC01C701B6010E94DC
:101F4000C2160E945D15862FDF91CF91FF90EF9012
:101F5000DF90CF90BF90AF909F908F900C94A50E84
:101F60001F93CF93DF93811102C02BE301C023E0C5
:101F700098E0922735B1292F2873377C232B25B978
:101F800076E066E0A1E051E0BFE3C1E0D2E01AE113
:101F90002CE439E046B181114B27552341F040FF35
:101FA00006C0611103C09C2750E001C06150AA2304
:101FB00041F042FF09C0711102C09D2702C071505B
:101FC00003C0552381F0A0E045B1E92FE7704E2B07
:101FD00045B9412F4A95F1F745B14E2745B9F90169
:101FE0003197F1F7D7CF8CE0ECE1F5E0DF011D92FE
:101FF0008A95E9F7DF91CF911F9108958091F704B9
:1020000081110BC081E08093F70488E0809319056B
:1020100080916F00826080936F0008951092F704A2
:1020200010921B0510921A05EFE6F0E080818D7F7B
:10203000808380E00C94A50E8091F7040895909120
:10204000F604911107C08093F50481E08093F604B3
:102050000C94950008958091F50408958091F604FC
:10206000089580E28093F5041092F604089560913B
:102070001C0570911D0580911E0590911F050E9401
:102080008B152CE137EC41EB52E40E94F0140895DB
:102090006091200570912105809122059091230582
:1020A0000E948B1524E731ED45EB52E40E94F014B9
:1020B00008956091240570912505809126059091E1
:1020C00027050E948B1525E535E545E052E40E9481
:1020D000F01408958F929F92AF92BF92CF92DF92A9
:1020E000EF92FF920F931F9349015A016701780104
:1020F0002CE137EC41EB52E40E94C2160E9492168A
:1021000060931C0570931D0580931E0590931F0519
:1021100024E731ED45EB52E4C501B4010E94C2163B
:102120000E949216609320057093210580932205EA
:102130009093230525E535E545E052E4C701B60156
:102140000E94C2160E949216609324057093250582
:1021500080932605909327051F910F91FF90EF9094
:10216000DF90CF90BF90AF909F908F900895EF92A7
:10217000FF920F931F9384B18F6384B985B1807CE4
:10218000886085B9E1E8F0E080818F7E808380817E
:1021900088608083E0E8F0E080818D7F80838081AB
:1021A0008E7F808380818F73808380818F7C80830A
:1021B0001092B0001092B100E0E7F0E08081816001
:1021C000808360E476E080E090E00E94130F80E07E
:1021D0000E94A50E8CE0ECE1F5E0DF011D928A95EE
:1021E000E9F7E12CF12C870120E030E040EA50E4EF
:1021F000CA01B9010E946A101092FC041092FD04F9
:102200001092FE041092FF0410921B0510921A0502
:102210001092F60480E28093F504109204051F9159
:102220000F91FF90EF900C940E101F920F920FB62B
:102230000F9211245D9815BC0F900FBE0F901F9048
:1022400018951F920F920FB60F9211248F9385B19C
:10225000887F85B91092B1008F910F900FBE0F90BB
:102260001F9018951F920F920FB60F921124CF92C4
:10227000DF92EF92FF920F931F932F933F934F9311
:102280005F936F937F938F939F93AF93BF93CF93FE
:10229000DF93EF93FF9380910405811106C381E0E2
:1022A000809304058091F604882329F00E940E1083
:1022B0000E94250EF8C289B199B1991F9927991FDB
:1022C00082FB882780F9892B11F44B9B03C080E0A7
:1022D0000E94A50E309B02C084E20BC0319B02C05D
:1022E00085E207C0329B02C086E203C0339B04C074
:1022F0008AE20E941F10D7C295B180911905887398
:10230000977C892B85B985B1887F90911905892B98
:1023100085B98AEF8093B20082E08093B10078940F
:1023200080911A0590911B05892B09F072C00E94BB
:10233000040EEC0190931B0580931A05009719F485
:102340000E940E10B0C28881823008F062C0C9A419
:10235000DAA4EBA4FCA4C092F804D092F904E092B1
:10236000FA04F092FB0440E45CE960E070E0409322
:10237000FC045093FD046093FE047093FF04C701B6
:10238000B6010E94130F8881813061F480E00E94C1
:10239000A50E1092050510920605109207051092E1
:1023A000080504C0C701B6010E94710FE0911A052B
:1023B000F0911B0586859785A089B189B595A7956C
:1023C00097958795B095A095909581959F4FAF4F24
:1023D000BF4F8093150590931605A0931705B093F2
:1023E00018058093110590931205A0931305B093DF
:1023F000140580930D0590930E05A0930F05B093DF
:1024000010051092090510920A0510920B05109202
:102410000C05C0911A05D0911B05E881E23009F442
:1024200033C250F0E43009F435C208F42FC2E5306D
:1024300009F039C280E02FC22D85209319058091C3
:10244000150590911605A0911705B09118054981C1
:102450005A816B817C81840F951FA61FB71F8093C3
:10246000150590931605A0931705B09318054E8592
:102470005F8568897989181619061A061B0644F5BE
:10248000216020931905841B950BA60BB70B809335
:10249000150590931605A0931705B0931805809124
:1024A0001C0590911D05A0911E05B0911F0523FFED
:1024B00004C00197A109B10903C00196A11DB11D76
:1024C00080931C0590931D05A0931E05B0931F05D6
:1024D0008091110590911205A0911305B0911405FA
:1024E0000D811E812F813885800F911FA21FB31F80
:1024F0008093110590931205A0931305B0931405D2
:10250000181619061A061B0654F5209119052260A3
:1025100020931905841B950BA60BB70B809311050F
:1025200090931205A0931305B09314058091200594
:1025300090912105A0912205B091230524FF04C0AC
:102540000197A109B10903C00196A11DB11D809396
:10255000200590932105A0932205B0932305809137
:102560000D0590910E05A0910F05B09110050985FC
:102570001A852B853C85800F911FA21FB31F809366
:102580000D0590930E05A0930F05B0931005181636
:1025900019061A061B0654F520911905246020938C
:1025A0001905841B950BA60BB70B80930D05909313
:1025B0000E05A0930F05B09310058091240590910E
:1025C0002505A0912605B091270525FF04C0019798
:1025D000A109B10903C00196A11DB11D8093240575
:1025E00090932505A0932605B0932705C090090573
:1025F000D0900A05E0900B05F0900C058FEFC81AFB
:10260000D80AE80AF80AC0920905D0920A05E092B1
:102610000B05F0920C058091190598E089278093AD
:102620001905C416D506E606F70608F028C18DA9D7
:102630009EA9AFA9B8ADC816D906EA06FB0608F0F0
:1026400040C00E94E00E882309F42DC189A99AA9EF
:10265000ABA9BCA94091F8045091F9046091FA0427
:102660007091FB04840F951FA61FB71F8093F80479
:102670009093F904A093FA04B093FB044A895B8910
:102680006C897D89481759076A077B0740F4409396
:10269000F8045093F9046093FA047093FB04C0901B
:1026A000F804D090F904E090FA04F090FB04C7011C
:1026B000B6010E94130F8881813009F064C080E068
:1026C000DBC089AD9AADABADBCADC816D906EA0684
:1026D000FB0669F480E49CE9A0E0B0E08093FC0490
:1026E0009093FD04A093FE04B093FF04DCC0C816D1
:1026F000D906EA06FB0608F44BC00E94E00E8823C8
:1027000009F4D1C04091F8045091F9046091FA04A1
:102710007091FB0489A99AA9ABA9BCA98417950754
:10272000A607B70768F4481B590B6A0B7B0B40934D
:10273000F8045093F9046093FA047093FB0408C002
:102740001092F8041092F9041092FA041092FB040B
:102750008DA59EA5AFA5B8A94091F8045091F904A4
:102760006091FA047091FB04481759076A077B07C8
:1027700008F095CF8093F8049093F904A093FA049D
:10278000B093FB048CCFC701B6010E94710F8BC0C0
:102790006A897B898C899D890091F8041091F904DC
:1027A0002091FA043091FB04061717072807390710
:1027B00051F06093F8047093F9048093FA049093B5
:1027C000FB040E94130F8881813009F054C080916E
:1027D000050590910605A0910705B09108051AE03E
:1027E000CC0CDD1CEE1CFF1C1A95D1F7892B8A2B13
:1027F0008B2B41F4C0920505D0920605E0920705A7
:10280000F092080540910505509106056091070575
:1028100070910805C416D506E606F70608F443C00D
:10282000ED9688819981AA81BB81840F951FA61F8F
:10283000B71F8093050590930605A0930705B093F5
:102840000805F8940E941D027894282F30E0205843
:102850003109220F331FE0911A05F0911B0546A1A3
:10286000429FC001439F900D11246FEF70E00E94C2
:102870007917862F01C08EA10E94A50E14C0E130E9
:1028800061F40E94450209C081E001C080E00E941D
:10289000C10E03C081E00E94C70E10921B0510926A
:1028A0001A050E94160E10920405FF91EF91DF9118
:1028B000CF91BF91AF919F918F917F916F915F91D8
:1028C0004F913F912F911F910F91FF90EF90DF90CB
:1028D000CF900F900FBE0F901F90189580E00E9430
:1028E000B00F81E00C94B00F5058BB27AA270ED030
:1028F000C4C1B5D130F0BAD120F031F49F3F11F40A
:102900001EF4AAC10EF4E095E7FB77C1E92FC6D10A
:1029100080F3BA17620773078407950718F071F4FC
:102920009EF5F5C10EF4E0950B2EBA2FA02D0B01EC
:10293000B90190010C01CA01A0011124FF27591B04
:1029400099F0593F50F4503E68F11A16F040A22F0A
:10295000232F342F4427585FF3CF4695379527957B
:10296000A795F0405395C9F77EF41F16BA0B620B7A
:10297000730B840BBAF09150A1F0FF0FBB1F661FC1
:10298000771F881FC2F70EC0BA0F621F731F841F04
:1029900048F4879577956795B795F7959E3F08F02A
:1029A000B3CF9395880F08F09927EE0F97958795E9
:1029B000089596D180F09F3740F491110EF4A8C18C
:1029C00060E070E080E89FE3089526F01B16611D2B
:1029D000711D811D18C132C1ECD008F481E0089549
:1029E0000CD04BC143D140F03AD130F021F45F3FDD
:1029F00019F003C151118CC12FC150D198F3992303
:102A0000C9F35523B1F3951B550BBB27AA276217B2
:102A10007307840738F09F5F5F4F220F331F441FF7
:102A2000AA1FA9F333D00E2E3AF0E0E830D091502F
:102A30005040E695001CCAF729D0FE2F27D0660F1C
:102A4000771F881FBB1F261737074807AB07B0E85B
:102A500009F0BB0B802DBF01FF2793585F4F2AF071
:102A60009E3F510568F0C9C053C15F3FECF3983EEB
:102A7000DCF3869577956795B795F7959F5FC9F7CE
:102A8000880F911D9695879597F90895E1E0660F57
:102A9000771F881FBB1F621773078407BA0720F0D0
:102AA000621B730B840BBA0BEE1F88F7E095089539
:102AB00004D06894B1112CC10895F8D088F09F57C4
:102AC00090F0B92F9927B751A0F0D1F0660F771F7A
:102AD000881F991F1AF0BA95C9F712C0B13081F05A
:102AE00016D1B1E0089513C1672F782F8827B85FFA
:102AF00039F0B93FCCF3869577956795B395D9F7BB
:102B00003EF490958095709561957F4F8F4F9F4FC4
:102B10000895E89409C097FB3EF4909580957095D0
:102B200061957F4F8F4F9F4F9923A9F0F92F96E919
:102B3000BB279395F695879577956795B795F1118E
:102B4000F8CFFAF4BB0F11F460FF1BC06F5F7F4F2B
:102B50008F4F9F4F16C0882311F096E911C077233D
:102B600021F09EE8872F762F05C0662371F096E846
:102B7000862F70E060E02AF09A95660F771F881F15
:102B8000DAF7880F9695879597F90895A9D080F080
:102B90009F3740F491110EF0BBC060E070E080E818
:102BA0009FEB089526F41B16611D711D811D2BC01E
:102BB00045C0990F0008550FAA0BE0E8FEEF161666
:102BC0001706E807F907C0F012161306E407F50721
:102BD00098F0621B730B840B950B39F40A2661F095
:102BE000232B242B252B21F408950A2609F4A14038
:102BF000A6958FEF811D811D089597F99F6780E845
:102C000070E060E00895882371F4772321F09850F4
:102C1000872B762F07C0662311F499270DC090519A
:102C2000862B70E060E02AF09A95660F771F881F68
:102C3000DAF7880F9695879597F908959F3F31F0B9
:102C4000915020F4879577956795B795880F911DDA
:102C50009695879597F908959FEF80EC0895002445
:102C60000A941616170618060906089500240A94F1
:102C700012161306140605060895092E0394000C77
:102C800011F4882352F0BB0F40F4BF2B11F460FF06
:102C900004C06F5F7F4F8F4F9F4F089557FD90582F
:102CA000440F551F59F05F3F71F04795880F97FB10
:102CB000991F61F09F3F79F08795089512161306CA
:102CC0001406551FF2CF4695F1DF08C016161706F9
:102CD0001806991FF1CF869571056105089408952E
:102CE000E5DFA0F0BEE7B91788F4BB279F3860F492
:102CF0001616B11D672F782F8827985FF7CF869516
:102D000077956795B11D93959639C8F30895E89422
:102D1000BB2766277727CB0197F908954ADF08F488
:102D20008FEF0895C3DF58F19E5758F19851A0F0E6
:102D3000E9F0983020F5092E9927660F771F881F34
:102D4000991F0A94D1F712C0062E672F782F882773
:102D5000985F11F4000C07C0993FB4F386957795FE
:102D600067959395D9F7611D711D811D3EF490956E
:102D70008095709561957F4F8F4F9F4F0895689410
:102D8000C7CFC5CF0BD079CF6ADF28F06FDF18F03F
:102D9000952309F032CF60CF1124BACF7FDFA0F3A3
:102DA000959FD1F3950F50E0551F629FF001729FE0
:102DB000BB27F00DB11D639FAA27F00DB11DAA1FFF
:102DC000649F6627B00DA11D661F829F2227B00D4C
:102DD000A11D621F739FB00DA11D621F839FA00DD7
:102DE000611D221F749F3327A00D611D231F849F27
:102DF000600D211D822F762F6A2F11249F5750407E
:102E00008AF0E1F088234AF0EE0FFF1FBB1F661F18
:102E1000771F881F91505040A9F79E3F510570F0D1
:102E2000ECCE76CF5F3FECF3983EDCF3869577955A
:102E30006795B795F795E7959F5FC1F7FE2B880FCC
:102E4000911D9695879597F9089511F40EF404CF86
:102E5000F5CE2CDFD0F39923D9F3CEF39F57550B42
:102E600087FF35D00024A0E640EA900180585695AF
:102E7000979528F4805C660F771F881F20F026172F
:102E80003707480730F4621B730B840B2029312964
:102E90004A2BA69517940794202531254A2758F7E1
:102EA000660F771F881F20F026173707480730F472
:102EB000620B730B840B200D311D411DA09581F712
:102EC000B901842F9158880F969587950895915050
:102ED0005040660F771F881FD2F708950E94B517DC
:102EE000A59F900DB49F900DA49F800D911D11245E
:102EF000089597FB072E16F4009407D077FD09D0AC
:102F00000E94C41707FC05D03EF4909581959F4F11
:102F10000895709561957F4F0895A1E21A2EAA1B1E
:102F2000BB1BFD010DC0AA1FBB1FEE1FFF1FA21779
:102F3000B307E407F50720F0A21BB30BE40BF50B76
:102F4000661F771F881F991F1A9469F760957095FF
:102F5000809590959B01AC01BD01CF010895EE0FC6
:102F6000FF1F0590F491E02D0994A29FB001B39F3B
:102F7000C001A39F700D811D1124911DB29F700D82
:102F8000811D1124911D0895AA1BBB1B51E107C08F
:102F9000AA1FBB1FA617B70710F0A61BB70B881FE9
:102FA000991F5A95A9F780959095BC01CD01089578
:042FB000F894FFCFC3
:022FB40001001A
:00000001FF
